:020000040800F2
:10000000B0060020A501000811160008F914000828
:1000100000000000000000000000000000000000E0
:10002000000000000000000000000000931C000819
:1000300000000000000000006B190008AB1C000865
:10004000B701000813160008B7010008B70100083F
:10005000B7010008B7010008B7010008B7010008A0
:1000600000000000B7010008B7010008B701000850
:10007000B7010008B701000800000000B701000840
:1000800000000000B70100080000000000000000B0
:10009000B701000800000000B7010008B701000820
:1000A000B7010008B7010008B7010008B701000850
:1000B000B7010008B70100080000000000000000C0
:1000C00000F002F800F042F80CA030C808382418FC
:1000D0002D18A246671EAB4654465D46AC4201D180
:1000E00000F034F87E460F3E0FCCB6460126334270
:1000F00000D0FB1AA246AB46334318475C1F0000F2
:100100007C1F0000103A02D378C878C1FAD8520791
:1001100001D330C830C101D504680C6070470000BD
:100120000023002400250026103A01D378C1FBD813
:10013000520700D330C100D50B6070471FB500983F
:10014000019900F07EFA1FBD10B510BD00F0D3FA82
:100150001146FFF7F3FF01F045FE00F0EBFA03B4A0
:10016000FFF7F2FF03BC00F01BFB000070B5054673
:100170000C46164602E00FCC0FC5103E102EFAD2E8
:10018000082E02D303CC03C5083E042E07D301CCAE
:1001900001C5361F03E021782970641C6D1C761E92
:1001A000F9D270BD0748804707480047FEE7FEE7E1
:1001B000FEE7FEE7FEE7FEE704480549054A064B71
:1001C000704700001D1D0008C1000008B00000209D
:1001D000B0060020B0020020B002002070B5064634
:1001E00000F012FA056830460B30C408E400B4424F
:1001F00001D8002070BD68682A46002818D0016820
:10020000A14211D30B46214608318B4208D34368E3
:1002100001194B6003681B1B0B605160046001E017
:1002200041685160001D70BD024640680028E6D15B
:100230002146284600F0F0F90028DCD170BD70B5E9
:100240000446051F00F0E0F90068002C1AD044684D
:1002500001E020466468002C01D0AC42F9D301686B
:100260000A18AA4204D12A6805468918016000E0EC
:10027000456028684119A14205D16168696021681B
:100280004018286070BD6C6070BDFEB50546104614
:100290000C46184373D0AE468C460020AD1A01467A
:1002A0009C4167D36646002701243D46B61A9D410E
:1002B00002D313463A462124654676462F04360C6F
:1002C0003E432D0CB61A9D4104D3150C1B042B4341
:1002D00012041034654676462F06360A3E432D0A30
:1002E000B61A9D4104D3150E1B022B43120208348B
:1002F000654676462F0736093E432D09B61A9D41BD
:1003000004D3150F1B012B431201241D65467646AD
:10031000AF07B6083E43AD08B61A9D4104D3950F0A
:100320009B002B439200A41C65467646EF07760897
:100330003E436D08B61A9D411AD392185B41641C66
:1003400016E00018764665464941B71A9D4101916D
:10035000009009D36046B11A98418E4684460098B1
:1003600001990025401C6941DD0752082A435B08BA
:10037000641EE6D57246634603B0F0BDFFE7002079
:100380000146C046C0462A462346F5E7034610B557
:100390000B439B070FD1042A0DD308C810C9121FA5
:1003A000A342F8D018BA21BA884201D9012010BD61
:1003B0000020C04310BD002A03D0D30703D0521C35
:1003C00007E0002010BD03780C78401C491C1B1B63
:1003D00007D103780C78401C491C1B1B01D1921ECD
:1003E000F1D1184610BDF8B5042A2CD3830712D0DA
:1003F0000B78491C0370401C521E83070BD00B78EE
:10040000491C0370401C521E830704D00B78491C02
:100410000370401C521E8B079B0F05D0C91ADF00CA
:100420002023DE1B08C90AE0FFF7A0FEF8BD1D4629
:1004300008C9FD401C46B4402C4310C0121F042ABA
:10044000F5D2F308C91A521EF0D40B78491C037078
:10045000401C521EEAD40B78491C0370401C012A30
:10046000E4D409780170F8BD01E004C0091F042933
:10047000FBD28B0701D50280801CC90700D0027017
:10048000704700290BD0C30702D00270401C491EE0
:10049000022904D3830702D50280801C891EE3E76A
:1004A0000022EEE70022DFE7002203098B422CD373
:1004B000030A8B4211D300239C464EE003460B43B4
:1004C0003CD4002243088B4231D303098B421CD316
:1004D000030A8B4201D394463FE0C3098B4201D308
:1004E000CB01C01A524183098B4201D38B01C01A40
:1004F000524143098B4201D34B01C01A52410309B7
:100500008B4201D30B01C01A5241C3088B4201D365
:10051000CB00C01A524183088B4201D38B00C01A12
:10052000524143088B4201D34B00C01A5241411A39
:1005300000D201465241104670475DE0CA0F00D01C
:100540004942031000D34042534000229C46030915
:100550008B422DD3030A8B4212D3FC22890112BA9B
:10056000030A8B420CD3890192118B4208D3890173
:1005700092118B4204D389013AD0921100E089098B
:10058000C3098B4201D3CB01C01A524183098B426C
:1005900001D38B01C01A524143098B4201D34B0155
:1005A000C01A524103098B4201D30B01C01A5241B8
:1005B000C3088B4201D3CB00C01A524183088B423F
:1005C00001D38B00C01A5241D9D243088B4201D3C8
:1005D0004B00C01A5241411A00D2014663465241B3
:1005E0005B10104601D34042002B00D549427047B2
:1005F00063465B1000D3404201B50020C046C046B0
:1006000002BD70477047704700487047580000208F
:10061000704770477047704738B504460A46002057
:100620006946C046C046002805D0024620460099CB
:1006300000F040F8012038BD10B5012000F054F85A
:1006400010BDF8B5C046C046054600200C46102037
:10065000C0460646A819A0420DD932466946002078
:10066000C046C046070001D100F03EF80098A04205
:1006700000D00546C419FFF7C7FFF61D0746056001
:10068000F008C0004619284600F008F8B44204D02B
:1006900031463868A21B00F00DF8F8BD002101605A
:1006A000416080607047102070470000004870472C
:1006B0005000002010B50346406801E00346406842
:1006C000002801D08842F9D31868C3188B4206D09D
:1006D000CB1CD808C000001D411A521A0146081D43
:1006E0000A60FFF7ACFD10BD10B500F031F800F066
:1006F00029F810BD70477546FFF7D8FFAE460500D4
:1007000069465346C008C000854618B020B5FFF7BB
:1007100053FD60BC00274908B6460026C0C5C0C5C9
:10072000C0C5C0C5C0C5C0C5C0C5C0C5403D4900E5
:100730008D46704710B50446C046C0462046FFF7B8
:100740000EFD10BD10B5002801D000F029F810BD35
:1007500010B5012805D0002103A000F027F80120E2
:1007600010BD09A1F8E7000053494752544D454DCB
:100770003A204F7574206F662068656170206D6542
:100780006D6F7279000000003A2048656170206D3D
:10079000656D6F727920636F727275707465640035
:1007A00001491820ABBEFEE72600020070B50546E1
:1007B0000C460A2000E06D1C00F012F8002D06D057
:1007C00028780028F7D102E0641C00F009F8002C1A
:1007D00002D020780028F7D10A2000F001F870BD7F
:1007E00008B5694608700320ABBE08BDF8B50E46D3
:1007F000074615460421052000F029F800210120B4
:1008000001F02CF980210A2001F044FA002405E0CF
:10081000395D092001F022F9641CE4B2B442F7D337
:100820000321012001F01AF9FF24052001F00CF941
:10083000641E2406240E01D04007F6D5222001F0C4
:1008400003F92870212001F0FFF86870F8BD70B539
:100850000C46054601F0F8F8A0430146284601F091
:10086000FDF870BD064BC01803E003780B70401C08
:10087000491C1346521E92B2002BF6D1704700005D
:1008800000000808F7B582B014460F461046FFF77F
:10089000A5FC00902046FFF7A1FC06460025224655
:1008A00000990298FFF7DEFF224631460298FFF7D3
:1008B000D9FF224631460098FFF768FD00280CD08A
:1008C0006D1CADB2022DEAD33046FFF7B8FC00989C
:1008D000FFF7B5FC012005B0F0BD2246384600996F
:1008E000FFF781FD3046FFF7AAFC0098FFF7A7FC51
:1008F0000020F0E7F7B516460D4600F005F9002494
:10090000084F09E000982A780019C119002000F06A
:10091000CFF8641CA4B26D1CB442F3D300F0BEF84F
:10092000FEBD000000000808F7B515460F4610464A
:10093000FFF754FC064600242A4639460098FFF784
:10094000D9FF2A4631460098FFF78CFF2A463146E8
:100950003846FFF71BFD002808D0641CA4B2022C07
:10096000EAD33046FFF76BFC0120FEBD3046FFF7AF
:1009700066FC0020FEBD000010B5214A00219069F0
:10098000C305204804D541690223194341619115EB
:1009900093699B0505D543690124234343616302A1
:1009A000194393695B0505D54369082423434361D3
:1009B000E301194393691B0505D5436904242343C7
:1009C00043616302194393699B0405D5436910246D
:1009D000234343616302194393699B0304D544692C
:1009E00020231C43446119439369DB0305D5436904
:1009F000402423434361A0020143916110BD0000E4
:100A0000002002403800002070B5054600F07AF959
:100A10000646184C0AE0681C08D0002D04D000F0EF
:100A200071F9801BA84201D9032070BDA069C007DD
:100A3000F1D1A069800701D50220A061A069C0059D
:100A400011D4A06980050ED4A06940050BD4A0691B
:100A5000000508D4A069800405D4A069800302D4ED
:100A6000A069C00303D5FFF787FF012070BD0020F8
:100A700070BD00000020024070B5044600F042F94D
:100A80000546601C02D004480078241800F03AF9AA
:100A9000401BA042FAD370BD2800002003484168E3
:100AA00001221143416000207047000000200240F5
:100AB000F8B5134D0746287C14460E46012807D08A
:100AC000012028740F48FFF79FFF002802D013E091
:100AD0000220F8BD00206861022F05D0012F05D04B
:100AE000002F05D0012007E0346002E0348000E0F0
:100AF00034700448FFF788FF00212974F8BD000016
:100B00003800002050C3000009494868C0070DD0D4
:100B1000EFF3108072B6074ACA60074ACA6080F3D2
:100B200010884868C00701D0012070470020704736
:100B300000200240EFCDAB8905040302F8B5002385
:100B400003240125BDE032462E469E40B446324085
:100B500079D00E79B607B60F012E01D0022E17D12B
:100B600086682746B6465E00B74000967646BE4386
:100B7000B646CF68009EB7407646374387604668E2
:100B80006746BE430F79FF06FF0F9F40374347601C
:100B90000E79F643B6070ED0C6682746B4465E0007
:100BA000B646B7406646BE43B4468F687646B74001
:100BB00066463743C7600E79B607B60F022E14D1CA
:100BC000DE08B60036180096366A5F07B446FE0E99
:100BD0000F27B646B7406646BE43B4460F69764611
:100BE000B74066463743009E376206682746B446DC
:100BF0005E00B646B7406646BE430F79B446BF07AF
:100C0000BF0F7646B7406646374307604E68B60367
:100C1000B60F55D02E4F7E6B2E437E639F082D4E10
:100C2000BF00BE190096B6680F27B4469E07360F60
:100C3000B646B7406646BE4305273F07B446B842AE
:100C400002D1002715E03BE0234FB84201D1012734
:100C50000FE0224FB84201D102270AE0204FB842EC
:100C600001D1032705E01F4FB84201D1052700E05D
:100C700006277646B74066463743009EB7601A4E51
:100C8000B6684F689643FF0200D51643164FBE6004
:100C9000FE684F689643BF0200D51643124FFE60B0
:100CA0007E684F689643BF0300D516430E4F7E60A3
:100CB0003E684F689643FF0300D516430A4A166004
:100CC0005B1C0A681646DA4000D03CE7F8BD00001D
:100CD00000100240000001400004005000080050D5
:100CE000000C0050001C0050000401400069084046
:100CF00000D001207047002A01D0816170478162D5
:100D000070470000014880687047000028000020FC
:100D100002488168027889188160704728000020A5
:100D200010B50848002401684022114301600320E7
:100D300000F00AF8002801D0012401E000F026F8B4
:100D4000204610BD0020024070B504460D4D7D20A8
:100D50002978C000FFF7A8FB01460B480068FFF7A1
:100D6000A3FB00F0B1FB002809D1042C07D200221C
:100D70002146401E00F03AF800206C6070BD012052
:100D800070BD000028000020340000201CB50020A9
:100D9000009001900D48416B012211434163816B2A
:100DA00002041143816300221146012000F01EF865
:100DB000012000F00FF8C02000900548019068461F
:100DC00000F018F800F04AF81CBD000000100240C6
:100DD00001000100002805DBC106C90E0120884082
:100DE000014908607047000000E100E010B500F024
:100DF000BBFF10BD174A1168E023994303681943EC
:100E0000116015494B680122120493434B600B6833
:100E100093430B60CB689343CB608B6893438B60A9
:100E20004368DB0302D50B6813430B6043689B03E5
:100E300002D54B6813434B600379DB0702D08B6804
:100E400013438B600079800702D5C8681043C860DF
:100E50007047000000700040000401400248016833
:100E6000102211430160704700700040704700007D
:100E700010B5054C6069C00304D5FFF7F7FF0120EA
:100E80000004606110BD000000040140F8B50E468A
:100E9000050038D05E480068C007C00FB04214D2C9
:100EA0005B4C20684008400030432060FFF72AFF79
:100EB000074605E0FFF726FFC11B564881427AD856
:100EC0002068C007C00FB042F4D12878524C800788
:100ED00005D5E068F0218843A9680843E0602878D8
:100EE000C00752D06868022806D0032807D02168BE
:100EF00001280AD0890504E02168890301E02168FE
:100F00008901002903DB0120F8BD4907F9E7E16801
:100F1000890889000143E160FFF7F4FE074668682D
:100F200002280AD0032814D001281ED029E0FFF798
:100F3000E9FEC11B374881423DD8E0680007800FB9
:100F40000228F4D121E0FFF7DDFEC11B31488142C8
:100F500031D8E0680007800F0328F4D115E0FFF7CF
:100F6000D1FEC11B2B48814225D8E0680007800FC5
:100F70000128F4D109E0FFF7C5FEC11B25488142D5
:100F800019D8E0680007800FF5D121480168C9072A
:100F9000C90FB14217D901684908490031430160BE
:100FA000FFF7B0FE074608E005E0FFF7ABFEC11B08
:100FB0001848814201D90320F8BD15480068C007D0
:100FC000C00FB042F1D12878400706D5E06807216C
:100FD00009028843E9680843E0602878000707D5DC
:100FE000E0680721C90288432969C9000843E06015
:100FF00000F01AF8E168094A0906090F515CC84077
:101000000749086007480068FFF79EFEF8BD00002A
:101010000020024088130000001002403C2000081D
:10102000340000202C00002070B51A4AD3681A49F9
:101030000C2018408D0004280CD04E00082810D039
:101040000C2810D050680004410F0120C003491C37
:10105000884070BD1068C00601D5084670BD28469E
:1010600070BD304670BD98020C4C000F205C1B0216
:101070009C0FD368641CDB0301D5314603E0126882
:10108000D20600D4294600F04AFE22460023FFF78C
:10109000FCF870BD0010024000093D004C20000823
:1010A000FEB505007ED0FE4CE7680C20E6680740E0
:1010B0000120000406402878C00747D0082F05D03B
:1010C0000C2F0AD101200004864206D1206880033B
:1010D0003CD568680028E5D038E001206968000444
:1010E000814203D121680143216011E005230122DF
:1010F0001B0492049942216802D111432160F1E757
:101100008143216021680140009120689043206064
:10111000686800280DD0FFF7F5FD009005E0FFF7A7
:10112000F1FD0099401A64287BD820688003F6D529
:101130000CE0FFF7E7FD009005E0FFF7E3FD009905
:10114000401A6428F0D820688003F6D428788007F5
:1011500056D50923E868042F0DD00C2F01D1002E9D
:1011600009D000283CD02168994301432160FFF752
:10117000C9FD064628E02168490701D5002891D01D
:1011800061681F22120291432A69120211436160B1
:101190002168994301432160FFF746FFE168090692
:1011A0000A0F00E08BE1BF49895CC840BE49086076
:1011B000BE480068FFF7C8FD002873D120E0FFF7A4
:1011C000A1FD801B0228AFD820684007F7D56068D2
:1011D0001F210902884329690902084360600FE062
:1011E0002068400840002060FFF78CFD064604E0C0
:1011F000FFF788FD801B022896D820684007F7D4A7
:101200002878C00660D5002F0CD0A86900284AD0E5
:101210002068FF21013108432060FFF773FD064677
:101220002EE0C1E02068800502D5A8690028A6D07C
:101230006068072149038843296A08436060606841
:10124000297F0002000A090608436060286A410BF2
:101250000120C003491C8840E16809060A0F914932
:10126000895CC8409049086090480068FFF76CFDB1
:10127000002817D128E0FFF745FD801B0228A2D8DF
:1012800020688005F7D56068072149038843296AEB
:10129000084360606068297F0002000A090608436D
:1012A000606011E0E2E02168FF20013081432160AD
:1012B000FFF728FD064604E0FFF724FD801B022807
:1012C00072D820688005F7D42878794E000724D595
:1012D00068690028306910D0012108433061FFF7A8
:1012E00011FD009005E0FFF70DFD0099401A02285E
:1012F0005AD830698007F6D50FE0400840003061C9
:10130000FFF700FD009005E0FFF7FCFC0099401A94
:10131000022849D830698007F6D42878400766D576
:1013200000200290A06BC00006D4A06B0121090729
:101330000843A063012002905E480168C90511D4EA
:101340000168821511430160FFF7DCFC009005E0A5
:10135000FFF7D8FC0099401A642825D85548006842
:10136000C005F5D5FF20AA680130824203D131695A
:101370000143316111E001218902002A07D00523D0
:101380001B029A4203D132690A433261EFE73269A4
:1013900082433261306988433061A868002810D0E8
:1013A000FFF7B0FC009008E05FE0FFF7ABFC014600
:1013B0000098091A4048814257D830698005F4D511
:1013C0000DE0FFF79FFC009006E0FFF79BFC009903
:1013D000411A3948814248D830698005F5D40298CD
:1013E000002804D0A06B012109078843A063686A24
:1013F000002866D00C2F3ED0012636060228206831
:1014000005D0B0432060FFF77DFC05462FE0B043D8
:101410002060FFF777FC074604E0FFF773FCC01B72
:10142000022822D820688001F7D4E96AA86AE26815
:101430000843296BFD231B049A4311430843E060D2
:10144000206830432060FFF75DFC054604E0FFF7AD
:1014500059FC401B022808D820688001F7D530E0ED
:10146000FFF750FC401B022801D90320FEBD206875
:101470008001F5D425E00128F8D0E06801210904B5
:10148000AA6A014091421AD10F218904EA6A0140F7
:10149000914214D1032189050840296B88420DE04F
:1014A000001002403C200008340000202C000020E6
:1014B00040100240007000408813000001D001205D
:1014C000FEBD0020FEBD0000094910B5401E884247
:1014D00001D9012010BD074C60610321081F00F0F5
:1014E00043FC0020A06107202061002010BD000007
:1014F000FFFFFF0000E000E0FEE70000F8B5052672
:1015000001271F4D3607002801D02F7002E02878F0
:1015100000280BD010213046FFF7E8FB002817D039
:1015200008213046FFF7E2FB002811D00320FFF727
:10153000A3FA10213046FFF7D9FB002806D0082176
:101540003046FFF7D3FB002800D02F702046F8BDAF
:101550000320FFF791FA10213046FFF7C7FB002860
:101560000AD008213046FFF7C1FB002806D0002C26
:10157000ECD000202870E9E70124FAE70224F8E71C
:101580000F000020F0B587B014216846FEF78AFFEF
:101590001C48C16A01252943C162C16A29400591DD
:1015A000C26A02210A43C262C06A174C084005267B
:1015B00036070590002221463046FFF79CFB134F6B
:1015C000002207213846FFF796FB0094002401957E
:1015D0000294694630460394FFF7B0FA0720009062
:1015E00002946946019503943846FFF7A7FA28024A
:1015F00000900194694602943846FFF79FFA07B0BD
:10160000F0BD000000100240E08000000004005027
:10161000FEE710B5FFF72CFC10BD70B5064608219B
:1016200088B000240846FFF712F900210D2000F0D1
:1016300015FA80210E20FFF70AF9932168460171FF
:101640002021417106A801AB0090022219460C200E
:1016500000F03FF805000DD1002101A8425C725452
:10166000425C491C5440C9B20429F7D3405CA042F3
:1016700000D0FE2580210E2000F00CFB284608B08B
:1016800070BD30B587B06C4620716171002001A932
:10169000145C0D18401CC0B2AC700628F8D30020B2
:1016A0001A5C0C18401CC0B222720628F8D306A897
:1016B00000900B460C220E2000F00BF8040004D121
:1016C000082000F0C1F9000700D4FE24204607B02E
:1016D00030BDFFB581B000240198FE261746009466
:1016E0000C2804D00E2805D11224102001E0772404
:1016F00030200090214680200143022000F0AEF906
:1017000080210420FFF7A3F80021012000F0A6F9B2
:1017100080210A2000F0BEFA002505E00298415D14
:10172000092000F09BF96D1CBD42F7D301200199FF
:1017300000F094F901980C2803D180210D2000F0CD
:10174000A9FA7D273F01042000F07EF905467F1E9F
:1017500004D0E80702D100980542F4D080210D2082
:10176000FFF775F8002F0FD0062000F06DF91B2150
:10177000084208D100262540E80700D0FF2601983E
:101780000C280CD000E0FE2680210C2000F082FA0C
:101790000021012000F062F9304605B0F0BD0A20BA
:1017A00000F052F904460C2000F04EF94007400FBB
:1017B00003D0E1000839091800E0E1000A98002C84
:1017C000016004D0122C04D91224002503E0012466
:1017D000FBE7002506E0092000F036F901460498F1
:1017E00041556D1CA542F6D3CEE730B587B00D4606
:1017F000302269460A71487101AC02212046A21CC0
:10180000FEF7F4FF06A801AB0090042219460C2055
:10181000FFF75FFF002802D10699902902D0FE2031
:1018200007B030BD0023E15CE9545B1CDBB2102B38
:10183000F9D3F5E730B50C460546082187B00846D0
:10184000FFF705F807210D2000F008F90321142007
:1018500000F020FA6846057106A801AB009001224D
:1018600019460C20FFF735FF002802D106991029F0
:1018700002D0FE2007B030BD694609792170694663
:1018800049796170F6E710B588B0932269460A710C
:1018900070224A7100228A72114601AA435C5418D0
:1018A000A3706C46A37A445C491C63406C46C9B281
:1018B000A3720429F2D3072101A8D21DFEF796FFD7
:1018C00008210846FEF7C3FF06A801AB00900922D5
:1018D00019460C20FFF7FDFE002802D106991829B1
:1018E00000D0FE2008B010BD70B588B00D46A02213
:1018F00069460A71487101AC02212046A21CFEF71C
:1019000075FF06AE01AB042219460C200096FFF7C6
:10191000E0FE002826D10698042823D168460079E5
:101920000007000F0A281DD10020295C2154401C0B
:10193000C0B21028F9D305AA102101A8FEF756FF5E
:1019400001AB122219460C200096FFF7C2FE0028B8
:1019500008D10699042905D1694609790907090FB3
:101960000A2900D0FE2008B070BD704770B505246C
:1019700000F046F801221502260729463046FFF7F7
:10198000BAF96420FFF778F8002229463046FFF7BD
:10199000B2F96420FFF770F8012229463046FFF7BC
:1019A000AAF96420FFF768F801E0641EE4B202209F
:1019B00000F04AF8802801D0002CF6D10F21012038
:1019C00000F04CF83D21112000F048F81E212D2098
:1019D00000F044F800212C2000F040F88D212A204E
:1019E00000F03CF83E212B2000F038F84021152073
:1019F00000F034F8002C01D0002070BDFE2070BD36
:101A000038B50A4CE16A02200143E162E16A014013
:101A10000748009100F05AF8E06A01210843E062AB
:101A2000E06A0840009000F023F838BD0010024042
:101A30001000002010B5FF21052000220131000711
:101A4000FFF759F910BD00008006410E10B502489D
:101A5000803100F08CF810BD100000200A4680068E
:101A600010B5410E014800F0D2F810BD1000002062
:101A700030B587B014216846FEF714FD0D49CA6AD7
:101A800001200243CA62C96A040201400190029027
:101A900000940320052505912D07039069462846EB
:101AA000FFF74CF8012221462846FFF724F907B03A
:101AB00030BD000000100240C28AC068002902D078
:101AC0008169114300E011048161704770B586B0EF
:101AD000044614216846FEF7E5FCE08A012503264A
:101AE00001950396029500906946E068FFF726F895
:101AF000E18A0122E068FFF7FEF8A08A01950396CB
:101B0000029500906946A068FFF718F8A18A0022A4
:101B1000A068FFF7F0F8208A0195039602950090DF
:101B200069462068FFF70AF8218A01222068FFF73A
:101B3000E2F8608A0090002001A961C169466068EE
:101B4000FEF7FCFF06B070BD10B5418A4068FFF794
:101B5000CDF8012800D0002010BD028A00680029BD
:101B600002D08169114300E0110481617047F8B52A
:101B70000C4606460021FFF79FFF00230021304658
:101B800000F03BF8200601D5012100E0002130469D
:101B9000FFF7E3FF6006040E0121304600F02DF848
:101BA0005B1CDBB2082BE9D30021304600F025F89E
:101BB00000231C4601250021304600F01EF858067F
:101BC000070E3046FFF7C0FF002802D03B462B43EC
:101BD00001E07B085B000121304600F00EF8641C38
:101BE000E4B2082CE7D30021304600F006F80121CA
:101BF0003046FFF761FF1846F8BD828A80680029E9
:101C000002D08169114300E011048161704770B511
:101C10000B46144606460021FFF74EFF0025002123
:101C20003046FFF7EAFF180601D5012100E0002148
:101C30003046FFF792FF5806030E01213046FFF7AA
:101C4000DCFF6D1CEDB2082DE9D300213046FFF713
:101C5000D4FF002300213046FFF7CFFF200601D537
:101C6000012100E000213046FFF777FF6006040EF7
:101C700001213046FFF7C1FF5B1CDBB2082BE9D323
:101C800000213046FFF7B9FF01213046FFF714FF6E
:101C900070BD704770B50D460446FFF7D5FE28436A
:101CA00001462046FFF7DAFE70BD10B5FFF730F8A9
:101CB00010BD000030B593B034216846FEF7F2FB4A
:101CC00014210DA8FEF7EEFB134801680322D2028F
:101CD0009143C21489180160022000900024102052
:101CE00009940125049003956846FFF7D9F9002867
:101CF00001D072B6FEE70F200D9080200F900E9558
:101D00001094002111940DA8FFF7C0F8002801D00D
:101D100072B6FEE713B030BD007000407047F8B5F2
:101D2000040C8BB2264682B25E430D0C1046370C73
:101D30005843360480190021794116466E43370C0A
:101D400036048019794126466E438919F8BD30B4AE
:101D50007446641E2578641CAB4200D21D46635D48
:101D60005B00E31830BC18478307FF22DB0E9A4064
:101D70008907090E9940002808DB830809489B0061
:101D80001B18186890430843186070470007000F3D
:101D90000838830804489B001B18D86990430843FF
:101DA000D861704700E400E000ED00E000B587B0C6
:101DB00014216846FEF776FB0948C26A01210A43EE
:101DC000C262C06A0291084005901820009000206D
:101DD0000190052069460007FEF7B0FE07B000BD80
:101DE0000010024086B00125FEF79AFFFFF762FF60
:101DF000FFF7C8FB05200022E0210007FEF77BFF6C
:101E0000002207218B48FEF776FFFFF7CFFFFFF791
:101E1000F7FDFFF70FFE022269460020FEF732FDB4
:101E20001027854C002813D168460078552803D127
:101E300068464078AA281AD0552168460170AA2120
:101E400041708770032269460020FEF76DFD6070C7
:101E500001220520D1030007FEF74DFF754E00203B
:101E6000FFF74CFB01280AD0022835D029E00020DA
:101E70006070012204A90220FEF704FDE8E769462C
:101E8000087C1038C0B20874102801D26020087491
:101E9000012211023046FEF72EFF6078002804D19F
:101EA000012204A90220FEF73FFD052001250022A2
:101EB000E0210007FEF71FFF002207213046FEF752
:101EC0001AFF6846007C00090300FFF740FF071671
:101ED0000E114346494C16006946087C1030C0B2CA
:101EE00008746028D4D90F74D2E70122042101E0DC
:101EF000012202213046FEF7FEFEFF21013130466D
:101F0000FEF7F4FE002851D0002DA8D0FFF72EFDDB
:101F100049492070C91C5220FFF78CFC00289ED133
:101F20004548401DFFF779FB002898D14248401DE5
:101F3000FFF7A9FC002892D13F4BA0705B1D032145
:101F40001A1D6020FFF79DFB002888D160780028CB
:101F50000ED012E001221146CCE70122802104E0DC
:101F60000122402101E00122202105200007C2E7D3
:101F700069461022087CFEF785FCA0786946800639
:101F8000000EFFF7B1FC0028C9D101220520D103C2
:101F90000007FEF7B0FE0025012105202A46C903EF
:101FA0000007FEF7A8FEFFF745FD58E7002DFCD01F
:101FB000FFF7DCFC20492070C91C5220FFF73AFCD7
:101FC0000028F2D11C48401DFFF727FB0028ECD168
:101FD0001948401DFFF757FC0028E6D1164BA070AA
:101FE0005B1D03211A1D6020FFF74BFB0028DCD18D
:101FF000A07869468006000EFFF7F7FB0028D4D1D1
:102000000122D503052029460007FEF774FE6078FB
:10201000002804D169461022087CFEF785FC0520C3
:10202000002229460007FEF766FEFFF703FD0025A4
:1020300015E7000000040050000000200000000030
:102040000000000001020304060708090304060853
:102050000C1018203000000078200008000000203C
:102060003800000004010008B020000838000020FB
:1020700078060000200100080101000000000000B7
:1020800000FFFFFFFFFFFF010004005000040050AD
:102090000004005000040050200040001000080020
:1020A000010000000400000000000000000020000B
:04000005080000C12E
:00000001FF
