:020000040800F2
:10000000101A0020D9000008A51600084D15000898
:1000100000000000000000000000000000000000E0
:10002000000000000000000000000000E1200008C7
:1000300000000000000000009D1C0008F9200008DE
:10004000EB000008A7160008EB000008EB00000812
:10005000EB000008EB000008EB000008EB000008D4
:1000600000000000EB000008EB000008EB000008B7
:10007000EB000008EB00000800000000EB000008A7
:1000800000000000EB00000800000000000000007D
:10009000EB00000800000000EB000008EB00000887
:1000A000EB000008EB000008EB000008EB00000884
:1000B000EB000008EB00000800000000000000005A
:1000C0000448854600F0AEF8004800477D2400084B
:1000D000C046C046101A0020044880470448004724
:1000E000FEE7FEE7FEE7FEE7FEE7FEE76921000820
:1000F000C100000830B50B46014600202022012433
:1001000009E00D46D5409D4205D31D469540491B4B
:100110002546954040191546521E002DF1DC30BD94
:10012000F0B51FB40646002082B005464024019178
:1001300000901BE0019922460F46304600F061F81E
:10014000049A059B801A994110D3104619462246FD
:1001500000F047F8361A8F4101972246012000210E
:10016000009F00F03EF838184D4100902046641E74
:100170000028DFDC019B00982946324607B0F0BD1D
:1001800003460B439B0703D009E008C9121F08C0B0
:10019000042AFAD203E00B780370401C491C521E5B
:1001A000F9D27047D2B201E00270401C491EFBD266
:1001B00070470022F6E710B513460A460446194672
:1001C000FFF7F0FF204610BD30B50446002003467F
:1001D00000E05B1C934203D2E05CCD5C401BF8D096
:1001E00030BD10B5202A04DB0146203A91400020A2
:1001F00010BD914020239C1A0346E34019439040D0
:1002000010BD10B5202A04DB0846203AD04000215A
:1002100010BD0B46D340D0402024A21A9140084381
:10022000194610BD064C0125064E05E0E36807CCD3
:100230002B430C3C98471034B442F7D3FFF744FFEC
:10024000D43B0008F43B000870B58C180578401CBE
:100250006B075B0F01D10378401C2A1106D102788D
:10026000401C03E006780E70401C491C5B1EF9D14F
:100270002B0705D40023521E0DD40B70491CFAE73E
:100280000378401CCB1A921C03E01D780D70491CAA
:100290005B1C521EF9D5A142D8D3002070BDF8B521
:1002A0000E46074615460421052000F029F80021D6
:1002B000012001F06DFD80210A2001F012FF0024D1
:1002C00005E0395D092001F063FD641CE4B2B4422D
:1002D000F7D30321012001F05BFDFF24052001F08D
:1002E0004DFD641E2406240E01D04007F6D52220C1
:1002F00001F044FD2870212001F040FD6870F8BD38
:1003000070B50C46054601F039FDA043014628466C
:1003100001F03EFD70BD000010B5094C0022012126
:10032000204600F0DCFB052000224021000700F001
:10033000D6FB00220221204600F0D1FB10BD0000B8
:100340000004005010B5094C00220121204600F0A5
:10035000C6FB052000224021000700F0C0FB01225F
:100360000221204600F0BBFB002010BD000400501D
:1003700001B57D23DB0001226946024801F01EF829
:1003800008BD000084010020064BC01803E003787C
:100390000B70401C491C1346521E92B2002BF6D122
:1003A0007047000000000808F7B582B014460F46F9
:1003B000104602F0D7F90090204602F0D3F9064625
:1003C0000025224600990298FFF7DEFF22463146BB
:1003D0000298FFF7D9FF224631460098FFF7F4FE56
:1003E00000280CD06D1CADB2022DEAD3304601F0CE
:1003F000FFFF009801F0FCFF012005B0F0BD224690
:1004000038460099FFF7BCFE304601F0F1FF009836
:1004100001F0EEFF0020F0E7F7B516460D4600F0BC
:1004200067FA0024084F09E000982A780019C119DA
:10043000002000F031FA641CA4B26D1CB442F3D366
:1004400000F020FAFEBD000000000808F7B51546D0
:100450000F46104602F086F9064600242A46394621
:100460000098FFF7D9FF2A4631460098FFF78CFF26
:100470002A4631463846FFF7A7FE002808D0641CFC
:10048000A4B2022CEAD3304601F0B2FF0120FEBD37
:10049000304601F0ADFF0020FEBDF1B582B0C820AE
:1004A00000901926242000F0ABF8002400252046F7
:1004B0007043074602997819085C00F0BBF86D1C80
:1004C000ADB2B542F6D3641C0098A4B28442EDD319
:1004D00000F037F9FEBD000010B500F073F800F031
:1004E0003FF8122000F08CF800F03AF8012000F0FC
:1004F00087F8C72000F09EF8002000F09BF801204C
:1005000000F098F8112000F07BF8012000F092F83C
:100510000023C7221146184600F0E8F83C2000F0FE
:100520006FF8012000F086F8182000F069F88020AC
:1005300000F080F8222000F063F8B12000F07AF893
:10054000202000F05DF8C721002000F08DF800F0B9
:1005500007F8024800F09BF810BD000028000020BA
:1005600010B509A001F002FE0D4C02E00A2000F0D7
:1005700077F90421204600F0ADFA0128F6D009A051
:1005800001F0F4FD10BD000044656275673A206516
:100590002D506170657220627573790D0A0000003C
:1005A0000004005044656275673A20652D50617003
:1005B000657220627573792072656C656173650D73
:1005C0000A00000010B50D4C01220221204600F067
:1005D00086FAC82000F044F900220221204600F0EB
:1005E0007EFA022000F03CF901220221204600F0B0
:1005F00076FAC82000F034F910BD00000004005065
:1006000070B5054600220121094800F068FA05246A
:10061000240700224021204600F061FA2846FFF717
:10062000A7FE01224021204600F059FA70BD0000CB
:100630000004005070B5054601221146094800F03B
:100640004EFA0524240700224021204600F047FAF4
:100650002846FFF78DFE01224021204600F03FFA98
:1006600070BD00000004005070B505460C464E20D9
:10067000FFF7C6FFE8B2FFF7DDFF4F20FFF7C0FF2F
:10068000E0B2FFF7D7FF200AFFF7D4FF70BD70B5C7
:1006900004463220FFF7B4FF0025605DFFF7CAFF74
:1006A0006D1CEDB2992DF8D3FFF75AFF3F20FFF7ED
:1006B000A7FF8034607EFFF7BDFF0320FFF7A0FF98
:1006C000A07EFFF7B7FF0420FFF79AFFE07EFFF759
:1006D000B1FF207FFFF7AEFF607FFFF7ABFF2C205D
:1006E000FFF78EFFA07FFFF7A5FF70BDF8B50746A7
:1006F0001C4616460D464420FFF782FF7805000E83
:10070000FFF798FF7005000EFFF794FF4520FFF7F5
:1007100077FFE8B2FFF78EFF280AFFF78BFFE0B202
:10072000FFF788FF200AFFF785FFF8BD10B51020FE
:10073000FFF766FF0120FFF77DFF642000F090F8CF
:1007400010BD10B52220FFF75BFFC720FFF772FF37
:100750002020FFF755FFFFF703FF10BD72B6FEE73D
:1007600010B5214A00219069C305204804D541698C
:10077000022319434161911593699B0505D543698E
:100780000124234343616302194393695B0505D543
:100790004369082423434361E301194393691B051B
:1007A00005D54369042423434361630219439369D4
:1007B0009B0405D543691024234343616302194315
:1007C00093699B0304D5446920231C434461194366
:1007D0009369DB0305D54369402423434361A002A9
:1007E0000143916110BD000000200240F40100208F
:1007F00070B5054600F07AF90646184C0AE0681C08
:1008000008D0002D04D000F071F9801BA84201D956
:10081000032070BDA069C007F1D1A069800701D590
:100820000220A061A069C00511D4A06980050ED482
:10083000A06940050BD4A069000508D4A069800414
:1008400005D4A069800302D4A069C00303D5FFF7D3
:1008500087FF012070BD002070BD00000020024015
:1008600070B5044600F042F90546601C02D0044809
:100870000078241800F03AF9401BA042FAD370BD6A
:1008800068010020034841680122114341600020B3
:100890007047000000200240F8B5134D0746287C41
:1008A00014460E46012807D0012028740F48FFF790
:1008B0009FFF002802D013E00220F8BD00206861ED
:1008C000022F05D0012F05D0002F05D0012007E011
:1008D000346002E0348000E034700448FFF788FFA1
:1008E00000212974F8BD0000F401002050C300006D
:1008F00009494868C0070DD0EFF3108072B6074A67
:10090000CA60074ACA6080F310884868C00701D0EF
:10091000012070470020704700200240EFCDAB89D6
:1009200005040302F8B5002303240125BDE0324687
:100930002E469E40B446324079D00E79B607B60FA7
:10094000012E01D0022E17D186682746B6465E00DA
:10095000B74000967646BE43B646CF68009EB74085
:1009600076463743876046686746BE430F79FF0681
:10097000FF0F9F40374347600E79F643B6070ED00E
:10098000C6682746B4465E00B646B7406646BE43D4
:10099000B4468F687646B74066463743C7600E79DF
:1009A000B607B60F022E14D1DE08B6003618009630
:1009B000366A5F07B446FE0E0F27B646B740664656
:1009C000BE43B4460F697646B74066463743009E3D
:1009D000376206682746B4465E00B646B7406646AC
:1009E000BE430F79B446BF07BF0F7646B740664691
:1009F000374307604E68B603B60F55D02E4F7E6B57
:100A00002E437E639F082D4EBF00BE190096B66828
:100A10000F27B4469E07360FB646B7406646BE431C
:100A200005273F07B446B84202D1002715E03BE056
:100A3000234FB84201D101270FE0224FB84201D124
:100A400002270AE0204FB84201D1032705E01F4FDB
:100A5000B84201D1052700E006277646B740664632
:100A60003743009EB7601A4EB6684F689643FF0240
:100A700000D51643164FBE60FE684F689643BF020E
:100A800000D51643124FFE607E684F689643BF0341
:100A900000D516430E4F7E603E684F689643FF03B5
:100AA00000D516430A4A16605B1C0A681646DA40EF
:100AB00000D03CE7F8BD00000010024000000140FB
:100AC0000004005000080050000C0050001C0050B2
:100AD000000401400069084000D001207047002A4E
:100AE00001D08161704781627047000001488068D1
:100AF0007047000068010020024881680278891868
:100B0000816070476801002010B508480024016822
:100B1000402211430160032000F00AF8002801D0B0
:100B2000012401E000F026F8204610BD002002401C
:100B300070B504460D4D7D202978C000FFF7DAFA24
:100B400001460B480068FFF7D5FA00F0E7FC0028E3
:100B500009D1042C07D200222146401E00F03AF8A9
:100B600000206C6070BD012070BD00006801002095
:100B7000740100201CB50020009001900D48416BCD
:100B8000012211434163816B0204114381630022FE
:100B90001146012000F01EF8012000F00FF8C020DF
:100BA000009005480190684600F018F800F04AF8F7
:100BB0001CBD00000010024001000100002805DB00
:100BC000C106C90E01208840014908607047000035
:100BD00000E100E010B501F0F1FA10BD174A11680C
:100BE000E023994303681943116015494B680122BA
:100BF000120493434B600B6893430B60CB689343A1
:100C0000CB608B6893438B604368DB0302D50B6832
:100C100013430B6043689B0302D54B6813434B603F
:100C20000379DB0702D08B6813438B600079800760
:100C300002D5C8681043C8607047000000700040CB
:100C4000000401400248016810221143016070470E
:100C5000007000407047000010B5054C6069C0038B
:100C600004D5FFF7F7FF01200004606110BD00000C
:100C700000040140F8B50E46050038D05E48006813
:100C8000C007C00FB04214D25B4C2068400840003F
:100C900030432060FFF72AFF074605E0FFF726FFF5
:100CA000C11B564881427AD82068C007C00FB042A5
:100CB000F4D12878524C800705D5E068F0218843AC
:100CC000A9680843E0602878C00752D06868022805
:100CD00006D0032807D0216801280AD0890504E03E
:100CE0002168890301E021688901002903DB0120D3
:100CF000F8BD4907F9E7E168890889000143E16027
:100D0000FFF7F4FE0746686802280AD0032814D0CB
:100D100001281ED029E0FFF7E9FEC11B37488142B8
:100D20003DD8E0680007800F0228F4D121E0FFF7EA
:100D3000DDFEC11B3148814231D8E0680007800FD9
:100D40000328F4D115E0FFF7D1FEC11B2B488142E7
:100D500025D8E0680007800F0128F4D109E0FFF7EB
:100D6000C5FEC11B2548814219D8E0680007800FE5
:100D7000F5D121480168C907C90FB14217D90168E7
:100D80004908490031430160FFF7B0FE074608E01B
:100D900005E0FFF7ABFEC11B1848814201D90320D3
:100DA000F8BD15480068C007C00FB042F1D12878DF
:100DB000400706D5E068072109028843E96808432F
:100DC000E0602878000707D5E0680721C90288435A
:100DD0002969C9000843E06000F01AF8E168094A8F
:100DE0000906090F515CC8400749086007480068B8
:100DF000FFF79EFEF8BD00000020024088130000AF
:100E000000100240B83B0008740100206C01002073
:100E100070B51A4AD3681A490C2018408D0004286E
:100E20000CD04E00082810D00C2810D050680004B8
:100E3000410F0120C003491C884070BD1068C006E6
:100E400001D5084670BD284670BD304670BD980279
:100E50000C4C000F205C1B029C0FD368641CDB034E
:100E600001D5314603E01268D20600D4294601F0CC
:100E70008DF922460023FFF753F970BD00100240A0
:100E800000093D00C83B0008FEB505007ED0FE4CC1
:100E9000E7680C20E6680740012000040640287837
:100EA000C00747D0082F05D00C2F0AD1012000041D
:100EB000864206D1206880033CD568680028E5D0CA
:100EC00038E0012069680004814203D121680143B0
:100ED000216011E0052301221B049204994221683C
:100EE00002D111432160F1E7814321602168014073
:100EF0000091206890432060686800280DD0FFF7BB
:100F0000F5FD009005E0FFF7F1FD0099401A642817
:100F10007BD820688003F6D50CE0FFF7E7FD009052
:100F200005E0FFF7E3FD0099401A6428F0D8206837
:100F30008003F6D42878800756D50923E868042F63
:100F40000DD00C2F01D1002E09D000283CD02168F3
:100F5000994301432160FFF7C9FD064628E0216857
:100F6000490701D5002891D061681F2212029143E0
:100F70002A6912021143616021689943014321608B
:100F8000FFF746FFE16809060A0F00E08BE1BF4961
:100F9000895CC840BE490860BE480068FFF7C8FDCC
:100FA000002873D120E0FFF7A1FD801B0228AFD8F5
:100FB00020684007F7D560681F2109028843296926
:100FC0000902084360600FE020684008400020608C
:100FD000FFF78CFD064604E0FFF788FD801B022822
:100FE00096D820684007F7D42878C00660D5002F2F
:100FF0000CD0A86900284AD02068FF21013108439D
:101000002060FFF773FD06462EE0C1E020688005F2
:1010100002D5A8690028A6D0606807214903884343
:10102000296A084360606068297F0002000A090697
:1010300008436060286A410B0120C003491C8840B6
:10104000E16809060A0F9149895CC8409049086027
:1010500090480068FFF76CFD002817D128E0FFF7E3
:1010600045FD801B0228A2D820688005F7D560685E
:10107000072149038843296A084360606068297F23
:101080000002000A09060843606011E0E2E02168FE
:10109000FF20013081432160FFF728FD064604E070
:1010A000FFF724FD801B022872D820688005F7D442
:1010B0002878794E000724D568690028306910D057
:1010C000012108433061FFF711FD009005E0FFF7B3
:1010D0000DFD0099401A02285AD830698007F6D5CC
:1010E0000FE0400840003061FFF700FD009005E090
:1010F000FFF7FCFC0099401A022849D830698007A4
:10110000F6D42878400766D500200290A06BC00076
:1011100006D4A06B012109070843A06301200290B7
:101120005E480168C90511D4016882151143016048
:10113000FFF7DCFC009005E0FFF7D8FC0099401AAF
:10114000642825D855480068C005F5D5FF20AA6851
:101150000130824203D131690143316111E0012143
:101160008902002A07D005231B029A4203D1326963
:101170000A433261EFE73269824332613069884362
:101180003061A868002810D0FFF7B0FC009008E09C
:101190005FE0FFF7ABFC01460098091A4048814226
:1011A00057D830698005F4D50DE0FFF79FFC00901B
:1011B00006E0FFF79BFC0099411A3948814248D864
:1011C00030698005F5D40298002804D0A06B012175
:1011D00009078843A063686A002866D00C2F3ED0B8
:1011E000012636060228206805D0B0432060FFF7AC
:1011F0007DFC05462FE0B0432060FFF777FC0746F3
:1012000004E0FFF773FCC01B022822D8206880018D
:10121000F7D4E96AA86AE2680843296BFD231B0436
:101220009A4311430843E060206830432060FFF791
:101230005DFC054604E0FFF759FC401B022808D876
:1012400020688001F7D530E0FFF750FC401B0228F2
:1012500001D90320FEBD20688001F5D425E00128D6
:10126000F8D0E06801210904AA6A014091421AD12C
:101270000F218904EA6A0140914214D103218905B2
:101280000840296B88420DE000100240B83B00087E
:10129000740100206C0100204010024000700040EA
:1012A0008813000001D00120FEBD0020FEBDF8B56E
:1012B00004000ED0FF27606A0537002500280AD0F9
:1012C0002561656126464036A562707C002807D0FE
:1012D0000AE00120F8BD6068B842F3D0E561F1E7AB
:1012E0003574204600F03EF80221717420680268CF
:1012F00040239A4302602123A26860689B021A403F
:1013000038401043E3688A021340184323690B40B6
:10131000217D1843C907C90F0843A16993101940DB
:101320000843E169382319400843216A80231940A2
:101330000843A16A93001940084321680860A06926
:101340000421000C0840616A1023194008432168F9
:1013500048602068C1699143C1616565012070746E
:101360000020F8BD10B586B0044614216846FEF78B
:1013700020FF10492068884219D10F48416B821420
:1013800011434163C16A01221143C162C06A002155
:1013900010400590A02000900220019003200390AF
:1013A00002910491052069460007FFF7BBFA06B0D9
:1013B00010BD00000030014000100240FFB505469E
:1013C00004464035287C002781B01646012809D004
:1013D00001202874FFF78AFB0090687C012804D064
:1013E000022797E0022005B0F0BD0298002874D0D3
:1013F000002E72D00320687400206065029921637A
:10140000A686E686A063A087E08760642064012248
:10141000A068D2034021904208D1206802688A4324
:101420000260206802680B021A43026020680268AA
:10143000520602D402680A4302600121E068C90230
:101440008842606828D1002801D0012E1ED1206B6F
:1014500021680088C86006E020688168890709D58E
:10146000216B0988C160206B801C2063E08E401EC8
:10147000E0860BE0FFF73AFB0099411A049881429D
:1014800002D3401C02D005E0002803D0E08E0028E3
:10149000E2D128E003273BE0002801D0012E1FD134
:1014A000206B21680078087306E02068816889074E
:1014B00009D5216B09780173206B401C2063E08EF5
:1014C000401EE0860CE0FFF711FB0099411A0498DA
:1014D000814203D3401C03D0DCE717E00028D9D0B9
:1014E000E08E0028E1D12046009A049900F088FCA3
:1014F000002801D020206065A068002803D1206862
:10150000C16880680090606D002801D0012701E06B
:101510000120687400202874384664E7094910B532
:10152000401E884201D9012010BD074C6061032193
:10153000081F00F043FE0020A0610720206100206A
:1015400010BD0000FFFFFF0000E000E0FEE700002C
:10155000F8B5052601271F4D3607002801D02F704A
:1015600002E0287800280BD010213046FFF7B2FAAD
:10157000002817D008213046FFF7ACFA002811D018
:101580000320FFF76DF910213046FFF7A3FA00287A
:1015900006D008213046FFF79DFA002800D02F70B2
:1015A0002046F8BD0320FFF75BF910213046FFF716
:1015B00091FA00280AD008213046FFF78BFA00285C
:1015C00006D0002CECD000202870E9E70124FAE7CF
:1015D0000224F8E70F000020F0B587B01421684618
:1015E000FEF7E7FD1C48C16A01252943C162C16AB3
:1015F00029400591C26A02210A43C262C06A174C9F
:101600000840052636070590002221463046FFF7A0
:1016100066FA134F002203213846FFF760FA009460
:10162000002401950294694630460394FFF77AF945
:101630000320009002946946019503943846FFF711
:1016400071F9FF20053000900194694602943846F4
:10165000FFF768F907B0F0BD0010024040800000BD
:101660000004005010B50E480C490160FF210531FF
:10167000416000218160C16001614161C16101225D
:10168000016252024162826181620721C162FFF7F9
:101690000EFE002801D0FFF761F810BD00300140B8
:1016A00084010020FEE710B5FFF7D6FA10BD000058
:1016B00030B52549CA8A022A08D00401042A19D063
:1016C000072A16D100220443E3B239E00022C3B254
:1016D0000CE0002005E0544324180D68401C2B55F5
:1016E00080B24C8A8442F6D8521C92B2888A9042C8
:1016F000EFD830BD830123438400002223430343FA
:10170000DBB20CE0002005E0544324180D68401CB7
:101710002B5580B24C8A8442F6D8521C92B2888AE9
:101720009042EFD830BD002005E0544324180D68E6
:10173000401C2B5580B24C8A8442F6D8521C92B27F
:10174000888A9042EFD830BDDC01002070B50023BC
:1017500009490DE0002206E05C43A4180E68055D0F
:10176000521C355592B24C8A9442F5D85B1C9BB200
:101770008A8A9A42EED870BDDC010020FFB5580776
:10178000DE0881B01F46002800D0761C002524E02A
:1017900000241EE001992846E20870435118405C7D
:1017A0000B99002906D06107490F88400006C2172F
:1017B000521C04E06107490F88400006C20F0398DD
:1017C000281881B20298201880B200F031F8641C09
:1017D000A4B2BC42DED36D1CADB20A988542D7D309
:1017E00005B0F0BD70B50E4C049E20602181628171
:1017F000A6810220E08200254E07C808002E00D0F6
:10180000401C6082A282E3812582002B04D0B42B8D
:1018100002D0A280E18070BDA180E28070BD000096
:10182000DC0100200149086070470000DC01002055
:10183000F8B53B4CA388834236D3E3888B4233D33D
:101840002346E7891E895D89002F1AD05A2F1BD0A5
:10185000B42F1DD0FF3F0F2F29D10B46281A401E51
:1018600080B2218A00291BD0012916D0022904D078
:1018700003291CD1F11A491E8BB2281A401E80B2CE
:101880000EE003460846ECE7711A491E8BB2E8E702
:10189000301A401E83B2681AE1E7F11A491E8BB272
:1018A0009E4201D3854203D21EA000F05FFCF8BD2A
:1018B0001B49E58A4C8A0968022D11D0042D22D0DB
:1018C000072DF4D15D0844432819DB070C5C5B0F3E
:1018D000F025DD40AC431201DA4022430A54F8BD42
:1018E0004443DD082C190D5D8020002A05D05A07DD
:1018F000520FD04028430855F8BD5A07520FD04028
:1019000085430D55F8BD9D084443281992079B0750
:101910000C5C5B0FC025DD40AC43120EDCE7000021
:10192000DC01002044656275673A2045786365658F
:1019300064696E6720646973706C617920626F7589
:101940006E6461726965730D0A00000070B5064629
:10195000082188B000240846FEF7D2FC00210D20A3
:1019600000F016FA80210E20FEF7CAFC932168468B
:1019700001712021417106A801AB00900222194695
:101980000C2000F03FF805000DD1002101A8425CB9
:101990007254425C491C5440C9B20429F7D3405CDC
:1019A000A04200D0FE2580210E2000F09AFB2846A0
:1019B00008B070BD30B587B06C46207161710020F1
:1019C00001A9145C0D18401CC0B2AC700628F8D3F5
:1019D00000201A5C0C18401CC0B222720628F8D3F2
:1019E00006A800900B460C220E2000F00BF8040015
:1019F00004D1082000F0C2F9000700D4FE242046DC
:101A000007B030BDFFB581B000240198FE2617460F
:101A100000940C2804D00E2805D11224102001E0D7
:101A2000772430200090214680200143022000F0DE
:101A3000AFF980210420FEF763FC0021012000F0B3
:101A4000A7F980210A2000F04CFB002505E0029850
:101A5000415D092000F09CF96D1CBD42F7D30120C7
:101A6000019900F095F901980C2803D180210D20EF
:101A700000F037FB7D273F01042000F07FF9054689
:101A80007F1E04D0E80702D100980542F4D08021DF
:101A90000D20FEF735FC002F0FD0062000F06EF968
:101AA0001B21084208D100262540E80700D0FF2668
:101AB00001980C280CD000E0FE2680210C2000F0BC
:101AC00010FB0021012000F063F9304605B0F0BDA5
:101AD0000A2000F053F904460C2000F04FF94007AB
:101AE000400F03D0E1000839091800E0E1000A982E
:101AF000002C016004D0122C04D91224002503E02C
:101B00000124FBE7002506E0092000F037F9014633
:101B1000049841556D1CA542F6D3CEE730B587B089
:101B20000D46302269460A71487101AC02212046F7
:101B3000A21CFEF7B4FB06A801AB009004221946D4
:101B40000C20FFF75FFF002802D10699902902D0F0
:101B5000FE2007B030BD0023E15CE9545B1CDBB222
:101B6000102BF9D3F5E730B50C460546082187B0B0
:101B70000846FEF7C5FB07210D2000F009F90321F7
:101B8000142000F0AEFA6846057106A801AB00907B
:101B9000012219460C20FFF735FF002802D10699D3
:101BA000102902D0FE2007B030BD694609792170A6
:101BB000694649796170F6E710B588B093226946A5
:101BC0000A7170224A7100228A72114601AA435C8E
:101BD0005418A3706C46A37A445C491C63406C465D
:101BE000C9B2A3720429F2D3072101A8D21DFEF7BE
:101BF00056FB08210846FEF783FB06A801AB0090C0
:101C0000092219460C20FFF7FDFE002802D1069993
:101C1000182900D0FE2008B010BD70B588B00D4660
:101C2000A02269460A71487101AC02212046A21C1B
:101C3000FEF735FB06AE01AB042219460C200096D8
:101C4000FFF7E0FE002826D10698042823D1684635
:101C500000790007000F0A281DD10020295C2154BB
:101C6000401CC0B21028F9D305AA102101A8FEF724
:101C700016FB01AB122219460C200096FFF7C2FE9C
:101C8000002808D10699042905D169460979090770
:101C9000090F0A2900D0FE2008B070BD704770B54A
:101CA000052400F047F80122150226072946304690
:101CB000FEF715FF6420FEF7D3FD002229463046CB
:101CC000FEF70DFF6420FEF7CBFD012229463046CA
:101CD000FEF705FF6420FEF7C3FD01E0641EE4B2D9
:101CE000022000F04BF8802801D0002CF6D10F2103
:101CF000012000F04DF83D21112000F049F81E218F
:101D00002D2000F045F800212C2000F041F88D2115
:101D10002A2000F03DF83E212B2000F039F8402128
:101D2000152000F035F8002C01D0002070BDFE20F9
:101D300070BD000038B50A4CE16A02200143E1623F
:101D4000E16A01400748009100F08AF8E06A012149
:101D50000843E062E06A0840009000F023F838BDD4
:101D6000001002401000002010B5FF2105200022C5
:101D700001310007FEF7B3FE10BD00008006410EE2
:101D800010B50248803100F0BCF810BD10000020F2
:101D90000A46800610B5410E014800F05FF910BDFB
:101DA0001000002030B587B014216846FEF701FA14
:101DB0000D49CA6A01200243CA62C96A040201408D
:101DC0000190029000940320052505912D070390B2
:101DD00069462846FEF7A6FD012221462846FEF761
:101DE0007EFE07B030BD000000100240C28AC0680D
:101DF000002902D08169114300E01104816170471C
:101E0000F8B5044615480E46154613490068FEF716
:101E100071F97D21C900484300906068C11FFD39F8
:101E20000ED13346002280212046009500F0BAF8FA
:101E300000280FD0606D2021084360650320F8BDA5
:101E40000098002806D0401E009020688068C0439B
:101E50000006F5D50020F8BD00366E0174010020A3
:101E600070B586B0044614216846FEF7A2F9E08AF0
:101E70000125032601950396029500906946E068C6
:101E8000FEF750FDE18A0122E068FEF728FEA08AF5
:101E900001950396029500906946A068FEF742FD01
:101EA000A18A0022A068FEF71AFE208A01950396F7
:101EB0000295009069462068FEF734FD218A0122D0
:101EC0002068FEF70CFE608A0090002001A961C125
:101ED00069466068FEF726FD06B070BD10B5418A00
:101EE0004068FEF7F7FD012800D0002010BD028AEF
:101EF0000068002902D08169114300E0110481616A
:101F00007047F8B50C4606460021FFF76FFF002327
:101F10000021304600F03BF8200601D5012100E009
:101F200000213046FFF7E3FF6006040E0121304632
:101F300000F02DF85B1CDBB2082BE9D30021304602
:101F400000F025F800231C4601250021304600F052
:101F50001EF85806070E3046FFF7C0FF002802D0D3
:101F60003B462B4301E07B085B000121304600F03B
:101F70000EF8641CE4B2082CE7D30021304600F0D0
:101F800006F801213046FFF731FF1846F8BD828A76
:101F90008068002902D08169114300E01104816149
:101FA00070470000FFB581B01E4604460A9DFEF74B
:101FB0009DFD401B351AFEF799FD0746264800682F
:101FC0004001000D684339E0701C38D0FEF78EFDEB
:101FD000C01BA84205D2002D03D0009800282BD0AA
:101FE0002BE020684168E022914341606068C11F96
:101FF000FD390CD10121A068C903884202D04911E2
:10200000884204D120680168402291430160012088
:10201000A16A4003814207D121680A6882430A60AD
:1020200021680A6802430A6001204034607400207D
:102030002074032005B0F0BD0025401E00902068EC
:1020400081680298884305D0002103988142BBD162
:102050000020EFE70121F8E77401002070B50B467E
:10206000144606460021FFF7C1FE00250021304638
:10207000FFF78DFF180601D5012100E00021304651
:10208000FFF735FF5806030E01213046FFF77FFFAB
:102090006D1CEDB2082DE9D300213046FFF777FF24
:1020A000002300213046FFF772FF200601D50121F1
:1020B00000E000213046FFF71AFF6006040E012100
:1020C0003046FFF764FF5B1CDBB2082BE9D300212D
:1020D0003046FFF75CFF01213046FFF787FE70BDF9
:1020E000704770B50D460446FFF748FE2843014689
:1020F0002046FFF74DFE70BD10B5FEF7FDFC10BD8C
:1021000030B593B034216846FEF753F814210DA87A
:10211000FEF74FF8134801680322D2029143C2141C
:1021200089180160022000900024102009940125E4
:10213000049003956846FEF7A7FE002801D072B60A
:10214000FEE70F200D9080200F900E951094002137
:1021500011940DA8FEF78EFD002801D072B6FEE79F
:1021600013B030BD00700040704700000FB410B5D0
:1021700003A9044B044A029800F052F810BC08BCB2
:1021800004B01847ED23000878010020F8B5040CCE
:102190008BB2264682B25E430D0C1046370C584374
:1021A000360480190021794116466E43370C3604F7
:1021B0008019794126466E438919F8BD8307FF22AD
:1021C000DB0E9A408907090E9940002808DB830836
:1021D00009489B001B181868904308431860704713
:1021E0000007000F0838830804489B001B18D869B3
:1021F00090430843D861704700E400E000ED00E040
:1022000002E008C8121F08C1002AFAD170477047BF
:10221000002001E001C1121F002AFBD1704700001D
:10222000FFB58DB00F460546002606E025280AD0EA
:10223000109A0F9990476D1C761C28780028F5D1CC
:10224000304611B0F0BD00240121674A009400E03F
:1022500004436D1C2B780846203B98401042F7D170
:1022600028782E2815D10420044368786D1C2A286C
:102270000AD101CF6D1C00900BE000990A22514356
:10228000303940186D1C00902878014630390929F2
:10229000F3D92878692843D006DC0028D0D06328F9
:1022A0000BD0642804D13BE073280FD075284CD0A4
:1022B000109A0F999047761C94E038786946087216
:1022C0000020487202A80190012003E038680190C4
:1022D0000020C0433F1D61070CD5002400E0641CB2
:1022E00000998C420FDA8442F9DB0199095D0029DB
:1022F000F5D108E0002400E0641C8442FCDB019975
:10230000095D0029F8D1361907E001980199007894
:10231000491C0191109A0F999047641EF5D261E013
:102320000A20019001CF002802DA40422D2102E06C
:10233000210504D52B216A461172012103E0E10732
:1023400001D02021F7E70C9104E00A20019001CF91
:1023500000210C910BA90B9108E00199FDF7CAFE31
:102360000A460B993032491E0B910A700028F4D1AD
:102370000B9803A9081A20300190600701D5009836
:1023800001E0012000900199884203DD0146019897
:10239000081A00E000200024009006E002A8109A2D
:1023A000005D0F999047641C761C0C988442F5DB05
:1023B00004E0109A30200F999047761C0099481E2F
:1023C00000900029F5DC08E00B980B990078491C77
:1023D0000B91109A0F999047761C0199481E019015
:1023E0000029F1DC6D1C28E7092801007047000076
:1023F00010B5002823D0124B0022001F196803E0FB
:10240000814203D80A4649680029F9D1002A0AD036
:102410001368841A9C4204D1006818181060104692
:1024200002E0506000E01860002907D002680B1A33
:10243000934203D10B68D21802604968416010BD15
:102440007C01002000B587B014216846FDF7B1FE7D
:102450000948C26A01210A43C262C06A0291084067
:102460000590182000900020019005206946000783
:10247000FEF758FA07B000BD0010024088B00126F0
:10248000FEF742FBFFF73CFEFFF7A6F8FFF7EAF87E
:10249000FFF7D8FFFFF74EFCFFF766FCA24800F0FD
:1024A00061F90790002802D1A0A0FFF75FFEFF208E
:1024B000FF23C82200900F3311460798FFF792F9C7
:1024C0000798FFF7AFF9FF20FFF7F2F8022202A901
:1024D0000020FDF769FF00259E4C002843D1684687
:1024E000007A552803D16846407AAA280FD0552192
:1024F00068460172AA21417210218172032202A949
:102500000020FDF7A3FF6070002807D02BE0657066
:10251000012206A90220FDF747FF24E0012206A9B7
:102520000220FDF741FF6846007E32210009401E6F
:102530004843C7B28848FFF709F920200090A3203C
:10254000C01B81B20195182391228448FFF716F928
:10255000FDF7F8FEFDF7C0FF0798FDF79EFFFEF7B9
:10256000E5F8FDF7D9FE01220520D1030007FEF7AB
:10257000B6FA0020FEF7ECFF012802D0022865D051
:1025800037E06946087E1038C0B20876102801D2BC
:10259000402063E001220520D1030007FEF79FFAE7
:1025A0006078002804D1012206A90220FDF74EFF21
:1025B0006846007E32210009401E4843C7B201260A
:1025C0006548FFF7C3F820200090A320C01B81B20C
:1025D0000195182391226148FFF7D0F8FDF7B2FE6C
:1025E000FDF77AFF0798FDF758FFFEF79FF8FDF714
:1025F00093FEFF2101315A48FEF76CFA00284ED0B5
:10260000002EB6D0FFF74BFB52492070C91C522058
:10261000FFF7A9FA0028ACD14E48401DFFF796F904
:102620000028A6D14B48401DFFF7C6FA0028A0D1CC
:10263000484BA5705B1D03211A1D6020FFF7BAF9F6
:10264000002896D1607800280AD00FE06946087EFD
:102650001030C0B2087640289CD91020087699E73F
:102660006846102202A9007EFDF79EFEA07802A90E
:102670008006000EFFF7D1FA0028CCD10122D70343
:10268000052039460007FEF72AFA002605203246C3
:1026900039460007FEF723FAFFF766FB69E7002ECD
:1026A000FCD0FFF7FCFA2B492070C91C5220FFF721
:1026B0005AFA0028F2D12748401DFFF747F90028B1
:1026C000ECD12448401DFFF777FA0028E6D1214BD2
:1026D000A5705B1D03211A1D6020FFF76BF9002810
:1026E000DCD1A07802A98006000EFFF717FA0028B7
:1026F000D4D101220527D6033F0731463846FEF7DD
:10270000EEF96078002805D16846102202A9007E03
:10271000FDF79CFE002231463846FEF7E0F9FFF750
:1027200023FB002625E70000881300004661696C42
:10273000656420746F206170706C7920666F722000
:10274000626C61636B206D656D6F72792E2E2E0D3C
:102750000A00000000000020D0270008583B0008B5
:1027600000040050F0B50B30C108C900144F00261A
:10277000144A0FE003688B420BD38B4205D95C1AD5
:102780004318456830C3083B00E04368136002C04B
:1027900004E0021D10680028ECD13046002803D167
:1027A0003868002801D00020F0BD064A06481060B5
:1027B000064A121AD208D20044C001203860D7E776
:1027C000800100207C01002014020020101600204F
:1027D000F000000000000000000000000000000009
:1027E00000000000000000001FC00000000000000A
:1027F00000000000000000000000000000000000D9
:10280000000787FFFFFFFFFFFFFFFFFFFFFFFFFF47
:10281000FFFFFFFFFFFFFFFFFFFFC39FFFFFFFFF64
:10282000FFFFFFFFFFFFFFFFFFFFFFFFFFFFFFFFB8
:10283000FFFFFFF13FFFFFFFFFFFFFFFFFFFFFFF76
:10284000FFFFFFFFFFFFFFFFFFFFFFFFF93FFFFF5E
:10285000FFFFFFFFFFFFFFFFFFFFFFFFFFFFFFFF88
:10286000FFFFFFFFFFF93FFFFFFFFFFFFFFFFFFF3E
:10287000FFFFFFFFFFFFFFFFFFFFFFFFFFFFF97FEE
:10288000FFFFFFFFFFFFFFFFFFFFFFFFFFFFFFFF58
:10289000FFFFFFFFFFFFFFFD7FFFFFFFFFFFFFFFCA
:1028A000FFFFFFFFFFFFFFFFFFFFFFFFFFFFFFFF38
:1028B000FD7FFFFFFFFFFFFFFFFFFFFFFFFFFFFFAA
:1028C000FFFFFFFFFFFFFFFFFFFD7FFFFFFFFFFF9A
:1028D000FFFFFFFFFFFFFFFFFFFFFFFFFFFFFFFF08
:1028E000FFFFFD7FFFFFFFFFFFFFFFFFFFFFFFFF7A
:1028F000FFFFFFFFFFFFFFFFFFFFFFFD7FFFFFFF6A
:10290000FFFFFFFFFFFFFFFFFFFFFFFFFFFFFFFFD7
:10291000FFFFFFFFFD7FFFFFFC7FFFFFFFFFFFFFCC
:10292000FFFFFFFFFFFFFFFFFFFFFFFFFFFD7FFF39
:10293000FFF93FFFFFFFFFFFFFFFFFFFFFFFFFFF6D
:10294000FFFFFFFFFFFFFD7FFFFFF39FFFFFFFFF85
:10295000FFFFFFFFF3FFFFFFFFFFFFFFFFFFFFFD95
:102960007FFFFFE7CFFFFFFE7FFFFBFBFFF3FFFFD4
:10297000FFFFFFFFFFFFFFFFFD7FFFFFCFE7FFFF31
:10298000FE300380403FF3FFFFFFFFFFFFFFFFFF2D
:10299000FFFD7FFFFF9FF3FFFFFF300380003FF04D
:1029A00007FFFFFFFFFFFFFFFFFFFD7FFFFF3FF977
:1029B000FFFFFFFFF3E1E0FFF007FFFFFFFFFFFF77
:1029C000FFFFFFFD7FFFFE7FFCFFFFFDFFF3E0E069
:1029D000FFF3FFFFFFFFFFFFFFFFFFFFFD7FFFFC98
:1029E000FFFE7FFFF9FFF3C0007FF3FFFFFFFFFF54
:1029F000FFFFFFFFFFFD7FFFF9FFFF3FFFF9FFF341
:102A000083183FE1FFFFFFFFFFFFFFFFFFFFFD7F99
:102A1000FFF3FFFF9FFFF9FFF39339300003FFFF40
:102A2000FFFFFFFFFFFFFFFD7FFFE7FFFFCFFFF986
:102A3000FFF3F131F80003FFFFFFFFFFFFFFFFFF90
:102A4000FD7FFFE7FFFFCFFFF9FFF3E000FFF3FF9C
:102A5000FFFFFFFFFFFFFFFFFFFD7FFFF1FFFF9F76
:102A6000FFF9FFF3FFFFFFF07FFFFFFFFFFFFFFF17
:102A7000FFFFFD7FFFF9FFFFFFFFF9FFF3C0003FFE
:102A8000F01FFFFFFFFFFFFFFFFFFFFD7FFFFDF0D8
:102A90001FFFFFF9FFF380003FF307FFFFFFFFFF7A
:102AA000FFFFFFFFFD7FFFFDF7DFFFFFF9FFF3FFF4
:102AB0001FFFF3C7FFFFFFFFFFFFFFFFFFFD7FFFCC
:102AC000FDF7DF7FFFF9FFF3F399FFF3FFFFFFFF50
:102AD000FFFFFFFFFFFFFD7FFFFDF7DF7FFFF9FF38
:102AE000F3E318FFF3FFFFFFFFFFFFFFFFFFFFFD13
:102AF0007FFFFDF7DF7FFFF9FFC3841C3FF3FFFF7C
:102B0000FFFFFFFFFFFFFFFFFD7FFFFDF7DF7FFF01
:102B1000FDFFE39E3F3FF7FFFFFFFFFFFFFFFFFFCC
:102B2000FFFD7FFFFDF7DF7FFFFFFFFFFFFFFFFFE1
:102B3000FFFFFFFFFFFFFFFFFFFFFD7FFFFDF7DF51
:102B40007FFFFFFFFFFFFFFFFFFFFFFFFFFFFFFF15
:102B5000FFFFFFFD7FFFFC07C07FFFFFFFFFFFFFC1
:102B6000FFFFFFFFFFFFFFFFFFFFFFFFFD7FFFFEF8
:102B70000FE0FFFFFFFFFFFFFFFFFFFFFFFFFFFF74
:102B8000FFFFFFFFFFFD7FFFFFFFFFFFFFFFFFFFD7
:102B9000FFFFFFFFFFFFFFFFFFFFFFFFFFFFFD7FC7
:102BA000FFFFFFFFFFFFFFFFFFFFFFFFFFFFFFFF35
:102BB000FFFFFFFFFFFFFFFD7FFFFFFFFFFFFFFFA7
:102BC000FFFFFFFFFFFFFFFFFFFFFFFFFFFFFFFF15
:102BD000FC7FFFFFFFFFFFFFFFFFFFFFFFFFFFFF88
:102BE000FFFFFFFFFFFFFFFFFFFD7FFFFFFFFFFF77
:102BF000FFFFFFFFFFFFFFFFFFFFFFFFFFFFFFFFE5
:102C0000FFFFFD3FFFFFFFFFFFFFFFFFFFFFFFFF96
:102C1000FFFFFFFFFFFFFFFFFFFFFFF93FFFFFFF8A
:102C2000FFFFFFFFFFFFFFFFFFFFFFFFFFFFFFFFB4
:102C3000FFFFFFFFF93FFFFFFFFFFFFFFFFFFFFF6A
:102C4000FFFFFFFFFFFFFFFFFFFFFFFFFFF99FFFFA
:102C5000FFFFFFFFFFFFFFFFFFFFFFFFFFFFFFFF84
:102C6000FFFFFFFFFFFFF187FFFFFFFFFFFFFFFFFA
:102C7000FFFFFFFFFFFFFFFFFFFFFFFFFFFFFFC3A0
:102C8000C000000000000000000000000000000084
:102C9000000000000000000007F00000000000003D
:102CA0000000000000000000000000000000000024
:102CB000001FF00000000000000000000000000005
:102CC000000000000000000000001FC00000000025
:102CD00000000000000000000000000000000000F4
:102CE0000000000787FFFFFFFFFFFFFFFFFFFFFF61
:102CF000FFFFFFFFFFFFFFFFFFFFFFFFC39FFFFF80
:102D0000FFFFFFFFFFFFFFFFFFFFFFFFFFFFFFFFD3
:102D1000FFFFFFFFFFF13FFFFFFFFFFFFFFFFFFF91
:102D2000FFFFFFFFFFFFFFFFFFFFFFFFFFFFF93F79
:102D3000FFFFFFFFFFFFFFFFFFFFFFFFFFFFFFFFA3
:102D4000FFFFFFFFFFFFFFF93FFFFFFFFFFFFFFF59
:102D5000FFFFFFFFFFFFFFFFFFFFFFFFFFFFFFFF83
:102D6000F97FFFFFFFFFFFFFFFFFFFFFFFFFFFFFF9
:102D7000FFFFFFFFFFFFFFFFFFFD7FFFFFFFFFFFE5
:102D8000FFFFFFFFFFFFFFFFFFFFFFFFFFFFFFFF53
:102D9000FFFFFD7FFFFFFFFFFFFFFFFFFFFFFFFFC5
:102DA000FFFFFFFFFFFFFFFFFFFFFFFC7FFFFFFFB6
:102DB000FFFFFFFFFFFFFFFFFFFFFFFFFFFFFFFF23
:102DC000FFFFFFFFFD7FFFFFFFFFFFFFFFFFFFFF95
:102DD000FFFFFFFFFFFFFFFFFFFFFFFFFFFD7FFF85
:102DE000FFFFFFFFFFFFFFFFFFFFFFFFFFFFFFFFF3
:102DF000FFFFFFFFFFFFFD7FFFFFFFFFFFFFFFFF65
:102E0000FFFFFFFFFFFFFFFFFFFFFFFFFFFFFFFDD4
:102E10007FFFFFF03FFFFFFFFFFFFFFFFFFFFFFF11
:102E2000FFFFFFFFFFFFFFFFFD7FFFFFC007FFFF6B
:102E3000FFFFFFFFFFFFF3FFFFFFFFFFFFFFFFFFAE
:102E4000FFFD7FFFFE0FC0FFFFFE7E7FC0007FF310
:102E5000FFFFFFFFFFFFFFFFFFFFFD7FFFF03FF8DA
:102E60003FFFFE600380003FF3FFFFFFFFFFFFFF18
:102E7000FFFFFFFD7FFFC1FFFF07FFFE60018FFE29
:102E80003FF007FFFFFFFFFFFFFFFFFFFD7FFF0793
:102E9000FFFFC1FFF80C8F9FFF3FF007FFFFFFFF11
:102EA000FFFFFFFFFFFD7FFF07FFFFC3FFF81DCF01
:102EB00098033FF3FFFFFFFFFFFFFFFFFFFFFD7FD3
:102EC000FFC0FFFE03FFFE39CF98033FF3FFFFFF74
:102ED000FFFFFFFFFFFFFFFD7FFFF83FF837FFFE1B
:102EE00039E79FFF3FE1FFFFFFFFFFFFFFFFFFFF0E
:102EF000FD7FFFFC07C077FFFE11E7800030000375
:102F0000FFFFFFFFFFFFFFFFFFFD7FFFFCC0067716
:102F1000FFFC01E38000380003FFFFFFFFFFFFFF1E
:102F2000FFFFFD7FFFFCF83E77FFFC00C39E4F3F95
:102F3000F3FFFFFFFFFFFFFFFFFFFFFD7FFFFCFF32
:102F4000FE77FFF860C19E4F3FF07FFFFFFFFFFF5E
:102F5000FFFFFFFFFD7FFFFCFFFE77FFF86C0F9C7C
:102F6000CC3FF01FFFFFFFFFFFFFFFFFFFFD7FFFD5
:102F7000FCFFFE73FFF87E1F98C03FF307FFFFFFC3
:102F8000FFFFFFFFFFFFFD7FFFFCFFFE63FFFE7EF5
:102F90001F81E03FF3C7FFFFFFFFFFFFFFFFFFFDC4
:102FA0007FFFFCFFFE41FFFE7C0F8BE33FF3FFFF43
:102FB000FFFFFFFFFFFFFFFFFD7FFFFE7FFCCCFF5A
:102FC000FE70038FFE3FF3FFFFFFFFFFFFFFFFFFDA
:102FD000FFFD7FFFFE3FF8DCFFFE61E180003FF375
:102FE000FFFFFFFFFFFFFFFFFFFFFD7FFFFF0FE181
:102FF000C8FFFF7FFBC0007FF7FFFFFFFFFFFFFF62
:10300000FFFFFFFD7FFFFFC007C1FFFFFFFFFFFFC7
:10301000FFFFFFFFFFFFFFFFFFFFFFFFFD7FFFFF42
:10302000F01FF7FFFFFFFFFFFFFFFFFFFFFFFFFFA7
:10303000FFFFFFFFFFFD7FFFFFFFFFFFFFFFFFFF22
:10304000FFFFFFFFFFFFFFFFFFFFFFFFFFFFFD7F12
:10305000FFFFFFFFFFFFFFFFFFFFFFFFFFFFFFFF80
:10306000FFFFFFFFFFFFFFFD7FFFFFFFFFFFFFFFF2
:10307000FFFFFFFFFFFFFFFFFFFFFFFFFFFFFFFF60
:10308000FD7FFFFFFFFFFFFFFFFFFFFFFFFFFFFFD2
:10309000FFFFFFFFFFFFFFFFFFFD7FFFFFFFFFFFC2
:1030A000FFFFFFFFFFFFFFFFFFFFFFFFFFFFFFFF30
:1030B000FFFFFD7FFFFFFFFFFFFFFFFFFFFFFFFFA2
:1030C000FFFFFFFFFFFFFFFFFFFFFFFD7FFFFFFF92
:1030D000FFFFFFFFFFFFFFFFFFFFFFFFFFFFFFFF00
:1030E000FFFFFFFFFD3FFFFFFFFFFFFFFFFFFFFFB2
:1030F000FFFFFFFFFFFFFFFFFFFFFFFFFFF93FFFA6
:10310000FFFFFFFFFFFFFFFFFFFFFFFFFFFFFFFFCF
:10311000FFFFFFFFFFFFF93FFFFFFFFFFFFFFFFF85
:10312000FFFFFFFFFFFFFFFFFFFFFFFFFFFFFFF9B5
:103130009FFFFFFFFFFFFFFFFFFFFFFFFFFFFFFFFF
:10314000FFFFFFFFFFFFFFFFF187FFFFFFFFFFFF15
:10315000FFFFFFFFFFFFFFFFFFFFFFFFFFFFFFFF7F
:10316000FFC3C000000000000000000000000000DD
:103170000000000000000000000007F00000000058
:10318000000000000000000000000000000000003F
:103190000000001FF0000000000000000000000020
:1031A0000000000000000000000000001FC0000040
:1031B000000000000000000000000000000000000F
:1031C00000000000000787FFFFFFFFFFFFFFFFFF7A
:1031D000FFFFFFFFFFFFFFFFFFFFFFFFFFFFC39F9B
:1031E000FFFFFFFFFFFFFFFFFFFFFFFFFFFFFFFFEF
:1031F000FFFFFFFFFFFFFFF13FFFFFFFFFFFFFFFAD
:10320000FFFFFFFFFFFFFFFFFFFFFFFFFFFFFFFFCE
:10321000F93FFFFFFFFFFFFFFFFFFFFFFFFFFFFF84
:10322000FFFFFFFFFFFFFFFFFFF93FFFFFFFFFFF74
:10323000FFFFFFFFFFFFFFFFFFFFFFFFFFFFFFFF9E
:10324000FFFFF97FFFFFFFFFFFFFFFFFFFFFFFFF14
:10325000FFFFFFFFFFFFFFFFFFFFFFFD7FFFFFFF00
:10326000FFFFFFFFFFFFFFFFFFFFFFFFFFFFFFFF6E
:10327000FFFFFFFFFD7FFFFFFFFFFFFFFFFFFFFFE0
:10328000FFFFFFFFFFFFFFFFFFFFFFFFFFFD7FFFD0
:10329000FFFFFFFFFFFFFFFFFFFFFFFFFFFFFFFF3E
:1032A000FFFFFFFFFFFFFD7FFFFE0000FFFFFFFFAF
:1032B000FFFFFFFFFFFFFFFFFFFFFFFFFFFFFFFD20
:1032C0007FFFFC00007FFFFFFFFFFFFFFFFFFFFF0F
:1032D000FFFFFFFFFFFFFFFFFD7FFFF81FF03FFF36
:1032E000FFFFFFFFFFFFFFFFFFFFFFFFFFFFFFFFEE
:1032F000FFFD7FFFF800003FFFFFFFFFFFFFFFFF25
:10330000FFFFFFFFFFFFFFFFFFFFFD7FFFF8000054
:103310003FFFFFFFFFFFFFFFF3FFFFFFFFFFFFFF89
:10332000FFFFFFFD7FFFFBFFFF3FFFFFDF7FFF1F73
:10333000FFF3FFFFFFFFFFFFFFFFFFFFFD7FFFFB2F
:10334000FFFFBFFFFF9F3FFF1FFFF3FFFFFFFFFFD9
:10335000FFFFFFFFFFFD7FFFFBFFFFBFFFFF9F3F63
:1033600080003FF007FFFFFFFFFFFFFFFFFFFD7F34
:10337000FFFBFFFFBFFFFF1F9FC0003FF007FFFFE6
:10338000FFFFFFFFFFFFFFFD7FFFFBFFFFBFFFFF13
:103390003F8FFFF7FFF3FFFFFFFFFFFFFFFFFFFF81
:1033A000FD7FFFFBFFFFBFFFFE3FCFF9F1FFF3FF04
:1033B000FFFFFFFFFFFFFFFFFFFD7FFFFBFFFFBFE3
:1033C000FFFE7FC7F1F8FFE1FFFFFFFFFFFFFFFFF9
:1033D000FFFFFD7FFFF800003FFFFC73E3E3FC709D
:1033E0000003FFFFFFFFFFFFFFFFFFFD7FFFF80070
:1033F000003FFFF8E3E3C1F4380003FFFFFFFFFFE6
:10340000FFFFFFFFFD7FFFF800003FFFF9C7F3CC90
:10341000E33FF3FFFFFFFFFFFFFFFFFFFFFD7FFF26
:10342000F800003FFFFF8F3F9C47BFF07FFFFFFF8B
:10343000FFFFFFFFFFFFFD7FFFF800003FFFFF8F53
:103440003FFE0FFFF01FFFFFFFFFFFFFFFFFFFFD2E
:103450007FFFF8C0043FFFFF1F1FFF0FFFF307FFB1
:10346000FFFFFFFFFFFFFFFFFD7FFFF8C00E3FFFE5
:10347000FE3F8FFE0FFFF3C7FFFFFFFFFFFFFFFFC2
:10348000FFFD7FFFF8C0063FFFFE7F8FFC03FFF3C9
:10349000FFFFFFFFFFFFFFFFFFFFFD7FFFF80000C3
:1034A0003FFFFC0007E0E0FFF3FFFFFFFFFFFFFF30
:1034B000FFFFFFFD7FFFF800003FFFFE000783F8DE
:1034C0003FF3FFFFFFFFFFFFFFFFFFFFFD7FFFF861
:1034D00000003FFFFFFFF78FFE3FF7FFFFFFFFFFFB
:1034E000FFFFFFFFFFFD7FFFFC3FF8FFFFFFFFFF38
:1034F000FFFFFFFFFFFFFFFFFFFFFFFFFFFFFD7F5E
:10350000FFFE3FF8FFFFFFFFFFFFFFFFFFFFFFFF93
:10351000FFFFFFFFFFFFFFFD7FFFFE3FF8FFFFFF05
:10352000FFFFFFFFFFFFFFFFFFFFFFFFFFFFFFFFAB
:10353000FD7FFFFE7FFDFFFFFFFFFFFFFFFFFFFFA0
:10354000FFFFFFFFFFFFFFFFFFFD7FFFFFFFFFFF0D
:10355000FFFFFFFFFFFFFFFFFFFFFFFFFFFFFFFF7B
:10356000FFFFFD7FFFFFFFFFFFFFFFFFFFFFFFFFED
:10357000FFFFFFFFFFFFFFFFFFFFFFFD7FFFFFFFDD
:10358000FFFFFFFFFFFFFFFFFFFFFFFFFFFFFFFF4B
:10359000FFFFFFFFFC7FFFFFFFFFFFFFFFFFFFFFBE
:1035A000FFFFFFFFFFFFFFFFFFFFFFFFFFFD7FFFAD
:1035B000FFFFFFFFFFFFFFFFFFFFFFFFFFFFFFFF1B
:1035C000FFFFFFFFFFFFFD3FFFFFFFFFFFFFFFFFCD
:1035D000FFFFFFFFFFFFFFFFFFFFFFFFFFFFFFF901
:1035E0003FFFFFFFFFFFFFFFFFFFFFFFFFFFFFFFAB
:1035F000FFFFFFFFFFFFFFFFF93FFFFFFFFFFFFFA1
:10360000FFFFFFFFFFFFFFFFFFFFFFFFFFFFFFFFCA
:10361000FFF99FFFFFFFFFFFFFFFFFFFFFFFFFFF20
:10362000FFFFFFFFFFFFFFFFFFFFF187FFFFFFFF30
:10363000FFFFFFFFFFFFFFFFFFFFFFFFFFFFFFFF9A
:10364000FFFFFFC3C00000000000000000000000FA
:1036500000000000000000000000000007F0000073
:10366000000000000000000000000000000000005A
:1036700000000000001FF00000000000000000003B
:1036800000000000000000000000000000001FC05B
:10369000000000000000000000000000000000002A
:1036A000000000000000000787FFFFFFFFFFFFFF93
:1036B000FFFFFFFFFFFFFFFFFFFFFFFFFFFFFFFF1A
:1036C000C39FFFFFFFFFFFFFFFFFFFFFFFFFFFFFA6
:1036D000FFFFFFFFFFFFFFFFFFF13FFFFFFFFFFFC8
:1036E000FFFFFFFFFFFFFFFFFFFFFFFFFFFFFFFFEA
:1036F000FFFFF93FFFFFFFFFFFFFFFFFFFFFFFFFA0
:10370000FFFFFFFFFFFFFFFFFFFFFFF93FFFFFFF8F
:10371000FFFFFFFFFFFFFFFFFFFFFFFFFFFFFFFFB9
:10372000FFFFFFFFF97FFFFFFFFFFFFFFFFFFFFF2F
:10373000FFFFFFFFFFFFFFFFFFFFFFFFFFFD7FFF1B
:10374000FFFFFFFFFFFFFFFFFFFFFFFFFFFFFFFF89
:10375000FFFFFFFFFFFFFD7FFFFFFFFFFFFFFFFFFB
:10376000FFFFFFFFFFFFFFFFFFFFFFFFFFFFFFFC6C
:103770007FFFFFFFFFFFFFFFFFFFFFFFFFFFFFFFD9
:10378000FFFFFFFFFFFFFFFFFD7FFFFFFFFFFFFFCB
:10379000FFFFFFFFFFFFFFFFFFFFFFFFFFFFFFFF39
:1037A000FFFD7FFFFFFFFFFFFFFFFFFFFFFFFFFFAB
:1037B000FFFFFFFFFFFFFFFFFFFFFD7FFFFF800712
:1037C000FFFFFFFFFFFFFFFFFFFFFFFFFFFFFFFF09
:1037D000FFFFFFFD7FFFFF0007FFFFFFFFFFFFFF72
:1037E000FFFFFFFFFFFFFFFFFFFFFFFFFD7FFFFF6B
:1037F0003FE7FFFFFFFFFFFFFFFFF3FFFFFFFFFFBD
:10380000FFFFFFFFFFFD7FFFFF7FCFFFFFFFF9FF00
:10381000FFBFFFF3FFFFFFFFFFFFFFFFFFFFFD7F86
:10382000FFFF7FCFFFFFFFF9FFFF1FFFF3FFFFFF4A
:10383000FFFFFFFFFFFFFFFD7FFFFF7FDFFFFFFFBA
:10384000F9FFC0007FF007FFFFFFFFFFFFFFFFFF53
:10385000FD7FFFFF7F9FFFFFFFF9F380007FF007F1
:10386000FFFFFFFFFFFFFFFFFFFD7FFFFF7FBFFFAA
:10387000FFF809E39F3E7FF3FFFFFFFFFFFFFFFF1E
:10388000FFFFFD7FFFFF7F3FFFFFF800C79F3E7FE9
:10389000F3FFFFFFFFFFFFFFFFFFFFFD7FFFF07F55
:1038A0007FFFFFFF880F80007FE1FFFFFFFFFFFF2B
:1038B000FFFFFFFFFD7FFFF07E63FFFFFF881F809C
:1038C00000700003FFFFFFFFFFFFFFFFFFFD7FFF13
:1038D000E7FEE3FFFFFF983F8F1E780003FFFFFF27
:1038E000FFFFFFFFFFFFFD7FFFE7FCC1FFFFFF982A
:1038F0003F9F3E7FF3FFFFFFFFFFFFFFFFFFFFFD47
:103900007FFFEFFD81FFFFFF183F9F3E7FF07FFFAE
:10391000FFFFFFFFFFFFFFFFFD7FFFEF0180FFFFC6
:10392000FF399F80007FF01FFFFFFFFFFFFFFFFFBA
:10393000FFFD7FFFEE03007FFFFE398FC0007FF3A6
:1039400007FFFFFFFFFFFFFFFFFFFD7FFFCCFF0033
:103950007FFFFC79C7FF1FFFF3C7FFFFFFFFFFFFDC
:10396000FFFFFFFD7FFFCCFF007FFFF8F9E3FF3F84
:103970009FF3FFFFFFFFFFFFFFFFFFFFFD7FFFC97B
:10398000FE003FFFF9F9F3FF1F1FF3FFFFFFFFFFEB
:10399000FFFFFFFFFFFD7FFFC3FE003FFFFFC1FFF3
:1039A000FF803FF3FFFFFFFFFFFFFFFFFFFFFD7FF4
:1039B000FFC3FE003FFFFFC1FFFFC07FF7FFFFFF18
:1039C000FFFFFFFFFFFFFFFD7FFFC7FE007FFFFF41
:1039D000FFFFFFFFFFFFFFFFFFFFFFFFFFFFFFFFF7
:1039E000FD7FFF8FFF007FFFFFFFFFFFFFFFFFFF58
:1039F000FFFFFFFFFFFFFFFFFFFD7FFF9FFF80FF38
:103A0000FFFFFFFFFFFFFFFFFFFFFFFFFFFFFFFFC6
:103A1000FFFFFD7FFFDFFFC1FFFFFFFFFFFFFFFF96
:103A2000FFFFFFFFFFFFFFFFFFFFFFFD7FFFFFFF28
:103A3000FFFFFFFFFFFFFFFFFFFFFFFFFFFFFFFF96
:103A4000FFFFFFFFFD7FFFFFFFFFFFFFFFFFFFFF08
:103A5000FFFFFFFFFFFFFFFFFFFFFFFFFFFD7FFFF8
:103A6000FFFFFFFFFFFFFFFFFFFFFFFFFFFFFFFF66
:103A7000FFFFFFFFFFFFFD7FFFFFFFFFFFFFFFFFD8
:103A8000FFFFFFFFFFFFFFFFFFFFFFFFFFFFFFFD48
:103A90007FFFFFFFFFFFFFFFFFFFFFFFFFFFFFFFB6
:103AA000FFFFFFFFFFFFFFFFFD3FFFFFFFFFFFFFE8
:103AB000FFFFFFFFFFFFFFFFFFFFFFFFFFFFFFFF16
:103AC000FFF93FFFFFFFFFFFFFFFFFFFFFFFFFFFCC
:103AD000FFFFFFFFFFFFFFFFFFFFF93FFFFFFFFFBC
:103AE000FFFFFFFFFFFFFFFFFFFFFFFFFFFFFFFFE6
:103AF000FFFFFFF99FFFFFFFFFFFFFFFFFFFFFFF3C
:103B0000FFFFFFFFFFFFFFFFFFFFFFFFF187FFFF4B
:103B1000FFFFFFFFFFFFFFFFFFFFFFFFFFFFFFFFB5
:103B2000FFFFFFFFFFC3C000000000000000000017
:103B3000000000000000000000000000000007F08E
:103B40000000000000000000000000000000000075
:103B5000000000000000001FFFFFFFFFE7FFFFC3A2
:103B6000FFFF81FFFF01FFFE00FFFE007FFC003F23
:103B7000F8001FF0001FE0000FE00007C000038006
:103B80000003C00007FE00FFFE00FFFF00FFFF0074
:103B9000FFFF00FFFF00FFFF00FFFF00FFFF00FF30
:103BA000FF00FFFF00FFFF00FFFF00FFFF00FFFF20
:103BB00000FFFF01FFFFFFFF00000000000000000A
:103BC0000102030406070809030406080C10182064
:103BD00030000000F43B00080000002084010000D9
:103BE000480200084C3C0008840100208C180000AA
:103BF000102200087301013AFF0112011204AA50B9
:103C00000412201240121012089480484094404838
:103C100080091618C1620A2B0801035A020E013FDF
:103C20003A220129091317412A32A6899399869AC3
:103C300040181109149E11620F034B0101799F1F57
:0C3C4000021741B032285E319204D220FD
:04000005080000C12E
:00000001FF
